:04C000006F2000208D
:10C004000000000000000000900000205A0A0020F8
:10C01400A9BDF9F594000020000000000000000014
:10C02400960000209800002000000000000000009E
:10C034009A000020000000009C0000200000000086
:10C044009E00002016030020E8030020A400002026
:10C05400A6000020A8000020AA000020AC000020B8
:10C06400AE000020B0000020C60000205A010020CD
:10C07400D60A0020B8000020BA000020BC0000202E
:10C08400BE000020EE01002082020020C400002037
:10C0940001A001A001A001A001A001A001A001A094
:10C0A40001A001A001A001A001A001A001A001A084
:10C0B40001A001A001A001A001A001A001A001A074
:10C0C40001A001A001A037370040834747009946EB
:10C0D4004111BD8B638CD70231476384E706114756
:10C0E400639EE702A3030100174600000346863758
:10C0F40037370040834771006315F6022C0013851F
:10C104004152976001E0E780807F09A88347570088
:10C1140093F7F70F2304F100834781004101730073
:10C12400203083477100834687000C08AE97238C28
:10C13400D7FE83477100850793F7F70FA303F10038
:10C1440055BF280097E001E0E780A09A1375F50F2A
:10C15400A303A1000346710055B737370040834756
:10C16400474099464111BD8B638CD70231476384A4
:10C17400E7061147639EE702A30301001746000088
:10C184000346662E37370040834771006315F60275
:10C194002C0013858153976001E0E780407609A85D
:10C1A4008347574093F7F70F2304F1008347810037
:10C1B40041017300203083477100834687400C0897
:10C1C400AE97238CD7FE83477100850793F7F70F4B
:10C1D400A303F10055BF280097E001E0E78020A306
:10C1E4001375F50FA303A1000346710055B7374734
:10C1F40000408347478099464111BD8B638CD70229
:10C2040031476384E7061147639EE702A3030100F5
:10C214001746000003461625374700408347710040
:10C224006315F6022C001385C154976001E0E78082
:10C23400006D09A88347578093F7F70F2304F10093
:10C244008347810041017300203083477100834696
:10C2540087800C08AE97238CD7FE8347710085072F
:10C2640093F7F70FA303F10055BF280097E001E00F
:10C27400E780A0AB1375F50FA303A100034671007B
:10C2840055B737470040834747C099464111BD8B96
:10C29400638CD70231476384E7061147639EE70244
:10C2A400A3030100174600000346A65C374700407D
:10C2B400834771006315F6022C00138501569760BD
:10C2C40001E0E780C06309A8834757C093F7F70FDD
:10C2D4002304F10083478100410173002030834728
:10C2E4007100834687C00C08AE97238CD7FE834722
:10C2F4007100850793F7F70FA303F10055BF2800DA
:10C3040097E001E0E78020B41375F50FA303A100C3
:10C314000346710055B7411126C4B714004022C624
:10C3240003D4C409420441809317240163DB07004A
:10C33400A145014597B001E0E780E0698967239E44
:10C34400F4089377042095CF9747000083C7576B71
:10C3540093E7170017470000A304F76AB7170040D4
:10C3640003A7470A137707203DC303A7C70A136728
:10C37400072023A6E70AB717004013070020239ECF
:10C38400E70842044184635F04029747000083C7BF
:10C39400475F93E70701174700002304F75EB717C9
:10C3A400004003A7470AA166131607016358060253
:10C3B40003A7C70A558F23A6E70AB717004061777A
:10C3C400239EE7083244A24441017300203003A7AE
:10C3D400870A1367072023A4E70A71BF03A7870A04
:10C3E400558F23A4E70AD1BFB717004083D6E709C6
:10C3F40003D7E7092166BD82B1C29746000083C610
:10C4040026638506174700002304D7629746000079
:10C4140083D6065793E60640174700002312D756E3
:10C424006177239FE70803A7470C9316070163D995
:10C43400060003A7C70C518F23A6E70C7300203016
:10C4440003A7870C518F23A4E70CCDBF411122C44D
:10C4540006C69737000083C7077517440000130406
:10C464002452A9CB83471408858BA9C7835704009A
:10C4740013974701634007048D45094597B001E0D0
:10C48400E7806055914517450000034555549710C2
:10C4940002E0E78040FEB717004003A6470A97E58D
:10C4A40002E0938525D425452582058A97A001E0DD
:10C4B400E780E0119747000083D7874C13F70740C4
:10C4C40029C713974701634A07028D45094597B069
:10C4D40001E0E78040509145174500000345354F82
:10C4E400971002E0E78020F997E502E0938585D074
:10C4F400254597A001E0E780800D8357040093F75A
:10C50400F7BF17470000231DF74683472400C18B5C
:10C51400B1CFB717004083A7470A139707016350A9
:10C5240007048357040013974701634A07028D45A4
:10C53400094597B001E0E780004A9145174500009E
:10C544000345F548971002E0E780E0F297E502E042
:10C55400938545CB254597A001E0E78040078347B5
:10C564002400BD9B17470000230DF740B24022442E
:10C57400410182804111814601468145114506C62B
:10C58400EF00C077B727004011472383E780B7F750
:10C5940000E003A707D16D9B23A8E7D003A707D129
:10C5A4005D9B23A8E7D07300501001000100B24046
:10C5B400410182804111814681450146114506C6EB
:10C5C400352FB727004011472383E780B717004072
:10C5D40003C7E70283C5E70483D78703916613770C
:10C5E400F70F93E5350063E5D700719B13671700D8
:10C5F400B7170040130670052380C704930680FA1A
:10C604002380D70401000100238207022380C7048A
:10C614002380D704010001002387E7022387B7049E
:10C624002380C7042380D7040100010003C7B70493
:10C6340013670702A385E7042380070437F700E0A4
:10C64400832507D193E545002328B7D0832507D157
:10C65400DD992328B7D07300501001000100238016
:10C66400C7042380D7040100010003C7B70413776C
:10C67400F70DA385E70423800704B24041018280BB
:10C684000111B7F5070022CC8146E1052A840A8608
:10C69400194506CE26CA02C0231201008525B71704
:10C6A400004003C7E70283C5E70483D78703916685
:10C6B4001377F70F93E5350063E5D700719B136794
:10C6C4001700B7170040130670052380C7049306AC
:10C6D40080FA2380D704010001002382070223800B
:10C6E400C7042380D704010001002387E7022387BE
:10C6F400B70423800704B7F500E003A705D1136747
:10C70400470023A8E5D003D5070265771107137501
:10C714000560418D598D4205418101002380C70484
:10C724002380D7040100010003C7F70037F4070092
:10C73400B7F400E013670704A387E70003C7B7044F
:10C74400610413670702A385E7042390A70283A764
:10C7540004D1DD9B23A8F4D0730050100100010024
:10C7640013056004352E81463000A285194502C4A4
:10C7740023160100612322478247E31AF7FCB71707
:10C784000040130770052380E704130780FA238011
:10C79400E7040100010003C7B7041377F70DA3856D
:10C7A400E70423800704F2406244D2440561828096
:10C7B40001114EC681460146AA898145114506CE1E
:10C7C40022CC26CA4AC81D2BB716004083C7E602EE
:10C7D40003C7E60483D68603116693F7F70F13673E
:10C7E400370063E5C600F19B93E717003714004058
:10C7F4001309700523002405930480FA230094048C
:10C8040001000100230204022300240523009404F0
:10C81400010001002307F4022307E40423000404B5
:10C82400130550025920B7F700E003A707D1136797
:10C83400470023A8E7D02300240523009404010023
:10C8440001000347F40013670704A307E40023006F
:10C85400240523009404010001002567B3E9E900DD
:10C864002310340303A707D15D9B23A8E7D07300EB
:10C874005010010001008146014681451145BD2942
:10C884002300240523009404010001008347640469
:10C8940093E717002303F40423000404F2406244E2
:10C8A400D2444249B24905618280B71700409306D9
:10C8B40070052380D704130780FA2380E70401005E
:10C8C400010003C6B7041376F60DA385C7042380BD
:10C8D4000704137605024DC203C6A700118A1DE2A0
:10C8E4002380D7042380E7040100010003C7A700C5
:10C8F400136747002385E7009307004B01000100FD
:10C90400FD17EDFFB7170040930670052380D70489
:10C91400130780FA2380E704010001007D89239432
:10C92400A700010001000100010023800704238007
:10C93400D7042380E7040100010001000100372728
:10C94400004093061005A303D78023800704B7177C
:10C954000040130770052380E704130780FA23803F
:10C96400E7040100010003C7B70413670708A385A0
:10C97400E7042380070482801376050441C603C6B6
:10C98400A700418A1DE22380D7042380E704010025
:10C99400010003C7A700136707012385E700930776
:10C9A400007D01000100FD17EDFFB717004093065D
:10C9B40070052380D704130780FA2380E70401005D
:10C9C40001001376F501136606042394C7000100E1
:10C9D400010001000100238007042380D70413060B
:10C9E40060042380E7046318C500010001003727B1
:10C9F4000040894689BF01000100372700409306A3
:10CA0400200591B72380D7042380E70401000100A7
:10CA140003D787001367070C2394E7000DBF411168
:10CA2400814601468145114506C6C92CB717004009
:10CA3400130770052380E704130780FA2380E704B3
:10CA44000100010003C76704136717002383E70489
:10CA540023800704B240410182808146014681451A
:10CA64001145692CB7170040930670052380D7043D
:10CA7400130780FA2380E704010001007D56239602
:10CA8400C7022380D7042380E7040100010003C701
:10CA94006704136717002383E7042380070401A0B6
:10CAA400BD473305F50201007D1575FD82804111F6
:10CAB40022C426C206C6AA84014463179400B24065
:10CAC400224492444101828005041305803E4204BD
:10CAD400C13F4180DDB7B717004013070003238827
:10CAE400E7028547174700002320F7F8730020303A
:10CAF400397122DC4ED656D237140040E57AB7F9A4
:10CB0400070026DA52D45AD05ECE06DE4AD862CC6A
:10CB14002A8B916B93040404130A7005910AE109AA
:10CB24008347E4020347E4048356840393F7F70F2F
:10CB34001367370063E57601F19B93E717002380C1
:10CB44004401130980FA2380240101000100230217
:10CB540004022380440123802401010001002307EF
:10CB6400F4022307E4042380040037F700E083275A
:10CB740007D193E747002328F7D08357040293F79C
:10CB84000760B3E76701B3E75701C207C183010038
:10CB94002380440123802401010001008346F40022
:10CBA400130CB40493E60604A307D4008346B40428
:10CBB40093E60602A305D4042310F402832707D1C5
:10CBC400DD9B2328F7D073005010010001001305EA
:10CBD4006004F9353000CE858146194502C4231618
:10CBE4000100292A114697450000938565E828002D
:10CBF40019231DD5930770052380F4002380240195
:10CC04000100010083470C0093F7F70D2300FC009B
:10CC140023800400F2506254D2544259B259225A29
:10CC2400925A025BF24B624C21618280411106C62A
:10CC3400B52DEFF0BF81977001E0E78080F3CDBFA1
:10CC44002303048015472303E48001002302A48006
:10CC5400828083076480E3CE07FE230304808280FE
:10CC640083076480E3CE07FE034544808280830704
:10CC74006480E3CE07FE2302A4808280411126C48F
:10CC84004AC24EC006C61377F50BAD47AA892E8952
:10CC940095446306F70019456537653F8D444E8515
:10CCA4004537FD59FD1463983401B240A24412493A
:10CCB400824941018280135509011375F50F453FDF
:10CCC4002209CDB7011126CC06CEB704080051378E
:10CCD4001545BD37713769372AC6A53F3245937765
:10CCE400150089EB136515001375F50FF240E24446
:10CCF40005618280FD14E9FC0145CDBF397126DC54
:10CD04004ADA4ED852D656D45AD25ED006DE62CE15
:10CD140066CCB7E700E07D5783AA070022C603AAC2
:10CD2400470023A0E71823A2E718B717004013070A
:10CD340070052380E704130780FA2380E70483C780
:10CD44004704930B75FFB684E20793FBFB0F8546FC
:10CD5400AA892E8B328937240040E187015763FA70
:10CD640076016308D5008946130700026313D500D2
:10CD74000157D98F93F7F70FB71C00402382FC04A7
:10CD840011472303E4801305F00F5D3D094CD135B1
:10CD9400636D7C11B7050700DA953787070079556D
:10CDA40063F2E504B3879500636EF702370B08005E
:10CDB400A94733EB65016399F90689E48144513D40
:10CDC40026850DA0DA850945553D05090345F9FF7A
:10CDD400FD14050B693D81C49377FB0FFDF7DD3529
:10CDE40069FD7D55B7170040130770052380E704DC
:10CDF400130780FA2380E70403C74704418B238287
:10CE0400E704F250B7E700E023A0571123A247112B
:10CE1400E25432445259C259325AA25A125B825BCA
:10CE2400724CE24C21618280A5476395F9068569BD
:10CE34001309F00FB3069900B3742B01B694134988
:10CE4400F9FFB3749900856B33796901416B93875A
:10CE5400F9FFB3F7270199E363FC340193D949003F
:10CE6400C147E3E637FF99BF0569C1697D19D9B7A1
:10CE74001305800D63886901130500026384790139
:10CE840013051008CA85DD3B353D21DD4E99B38479
:10CE94003441D9B7DA852D45D533CA94E30099F2E4
:10CEA40005097D3BA30FA9FED5BF9387F9FF93F72F
:10CEB400F70F6361FC0C83C71C0413073008631F5E
:10CEC400F70437070800636BEB04B3079B00B7064E
:10CED400100063F5D704334BEB0089476393F906DD
:10CEE4008980D549E38C04ECDA850945413B110975
:10CEF4000327C9FF91472320E48003076480E34E9E
:10CF040007FE23033481FD17EDFBFD14110B81C4CF
:10CF14009377FB0FE9FF7D3371F5E1B5B717004057
:10CF240003C75704B70708001377070219E3B78745
:10CF340007007955E378FBEA33079B00E3FFE7F842
:10CF440055B58547E382F9F2DA852D45053B93898A
:10CF5400F4FFE38504E6293393F7390091EB832644
:10CF640004800327090093074900E39AE6E43E8915
:10CF7400CE84F1BFB5476396F9001305900BC93110
:10CF840035BDB1471305B00AE38BF9FE99476391A8
:10CF9400F904B7050800B365BB002D45C5318144CC
:10CFA4008D4BA1497539639674018327048023202E
:10CFB400F9008504E39834FF8327048013172B01B9
:10CFC400635507002312F900D5BB2322F900FDB3F2
:10CFD4009D476399F90281451305B0044531BD4469
:10CFE4002320090023220900FD599D3993F7740079
:10CFF400CA9703C70700FD14398D2380A700E39661
:10D0040034FF6DBBA1476392F9046D398144630D0C
:10D014000B008D479304C0036308FB0093040005D1
:10D0240063048B01930440041375C507E30895D882
:10D034001945393139390545213126850D390945D7
:10D044003D314931E31C05D669BB91476399F90029
:10D0540013056006F536F53E130590090DB7E38F09
:10D0640009D4F154A9BB19CD91CD09CE8147338799
:10D07400F500834607003307F50085072300D70032
:10D08400E317F6FE828019C991C909CA910583A7DD
:10D09400C5FF11057D16232EF5FEC5BF828001C98B
:10D0A40019C62A960505A30FB5FEE31DA6FE8280C8
:10D0B40081473307F5000307070019E33E858280A3
:10D0C4008507C5BF01112E8626CAAA841315060139
:10D0D4009305F004418122CC06CE32C6EF001076CF
:10D0E4002A8401C53246A685BD3F2285F2406244AA
:10D0F400D24405618280854715C18DC105C281472F
:10D10400B306F5003387F50083C60600034707001E
:10D114006398E6008507E315F6FE85473E85828021
:10D124008147EDBF9307F6FFBE952A966313C500AA
:10D134008280FD1583C715000505A30FF5FEFDB715
:10D14400AA87014581CF09CE3E96850703C7F7FF1D
:10D154006317B700E39BC7FE0545828082800145C3
:10D1640082807971975700009387C71822D480432F
:10D1740006D626D24AD04ECE52CC56CA5AC85EC61D
:10D1840062C45DCC37C9C901814B175A0000130A28
:10D19400EA1A97540000938424161309F937975A0E
:10D1A4000000938AEA0FB709C0A8370B405783578A
:10D1B400240095E35C44639D0B0017570000232B68
:10D1C400F712032CC4002285EF007074628499A8BE
:10D1D40023A6FB00FDB783270A0082978386640198
:10D1E4001C4463DB06063307F5406367E908975779
:10D1F400000023AF070A8355240003450400970069
:10D2040002E0E78040275C405844A9CF1444B69715
:10D214008386640163C5060063E33701DA971CC49F
:10D22400A28B3A8449F497570000938767079C4B75
:10D2340009476378F706F91717570000232AF706FA
:10D24400B250225492540259F249624AD24A424B91
:10D25400B24B224C45618280E377F5F83387F9407D
:10D264002A9761B763970B009757000023A4E70838
:10D2740089BF23A6EB00B1B7D85009CF63DF0600FE
:10D284003385A74083A70A016376F500975700000A
:10D2940023A0A702A28B404471B7E3F3A7FECE9765
:10D2A400C5B79757000023A5070059BF411122C4F1
:10D2B400175400001304C4011C4006C626C24AC009
:10D2C40091C782979757000023A407005C4091C33D
:10D2D40082971C406390071C9757000083C7171A56
:10D2E400858B95C797570000A38A07181757000026
:10D2F4000347F718954763FCE700352B9757000061
:10D3040083C7F717F5178A07A2979C438297175983
:10D3140000001309691A8347C900918B99C3EF0070
:10D3240050451C4491C3829797540000938444FC55
:10D334009840175600000346B6F69757000083C777
:10D3440027F693961700BA9683D60600D5CA975740
:10D35400000083C7E7F463EFC70A975700002381EF
:10D3640007F41C40639807129757000083C75711AE
:10D3740091CF9757000083C7971089EB9757000008
:10D38400A3800710972002E0E780008697570000EB
:10D394009387C7FA9C43638F070EB707C0A8175734
:10D3A40000002327F7F0753B975700009387C7F4D5
:10D3B400DC53EDC317570000130787EE184B97573C
:10D3C400000083C7B7F46367F70C175700000347DF
:10D3D400170B954763E0E70C8347C900918BDDEB9E
:10D3E40090409756000083C6B6EB63CBD70A22441D
:10D3F400B240924402494101170302E0670083F4FA
:10D40400850793F7F70F97560000238BF6E8E3E6BA
:10D41400C7F235BF86073E978355070023100700E0
:10D4240097570000239407EC97570000938707EA67
:10D434009C43175500000345A5E613172500BA972A
:10D444009C4382979757000083D747EA17570000F9
:10D45400034707E593C7F7FF7D8D9317170098409F
:10D464003E97835707005D8D2310A7009757000050
:10D4740083C707E391C78507175700002302F7E224
:10D48400175700000347C7E19757000083C757E1C8
:10D49400E375F7ECB2402244924402494101828090
:10D4A400139717003297035707006DF7850735BFA9
:10D4B400AD6737C70040BD072326F7200F100000D3
:10D4C400975700009387C7DDC84F83278726BD661B
:10D4D400BD0693C7F7FF99836A052326D7205D8D80
:10D4E40082804111B7170040985F3AC6945F324773
:10D4F400E39CE6FE3245410182808280011122CC08
:10D5040017540000130404F918402AC62EC432C26A
:10D5140006CE3C4B93F7F7F73CCB971002E0E7803D
:10D524006069184097560000938606F43C4B93E7D5
:10D5340007083CCB9C423245A24523A00700034781
:10D5440015000348250022074208429703480500B6
:10D554004297034835006208429798D7034755001D
:10D564000348650022074208429703484500429752
:10D574000348750062084297D8D7034795000348CB
:10D58400A5002207420842970348850042970348B2
:10D59400B5006208429798DB0347D5000348E500CD
:10D5A4002207420842970348C5000345F500429705
:10D5B40062052A97D8DB03C7150003C52500220797
:10D5C40042052A9703C505002A9703C5350062055D
:10D5D4002A9798CF03C7550003C565002207420563
:10D5E4002A9703C545002A9703C5750062052A9743
:10D5F400D8CF03C7950003C5A500220742052A9783
:10D6040003C585002A9703C5B50062052A9798D3F8
:10D6140003C7D50003C5E500220742052A9703C5C1
:10D62400C50083C5F5002A97E2052E97D8D3D843C1
:10D63400759BD8C3D84313671700D8C3984313679F
:10D64400170098C3124698425C43858BD1E71C4F60
:10D6540001452300F6009C429C4FA183A300F600E1
:10D664009C429C4FC1832301F6009C429C4FE18362
:10D67400A301F6009C42D84F2302E600D84F218331
:10D68400A302E600D84F41832303E600D84F618309
:10D69400A303E60098532304E60098532183A304CC
:10D6A400E600985341832305E60098536183A3055C
:10D6B400E600D8532306E600D8532183A306E600E8
:10D6C400D85341832307E600DC53E183A307F60024
:10D6D400F2406244056182800100B5B7175700002B
:10D6E4001307C7D81443411122C49C5E4AC006C61E
:10D6F400998326C2858B3A84175900001309C9D629
:10D70400D1CB9C5E97540000938404D793F7F7F928
:10D714009CDE17570000034787D693070008631B56
:10D72400F700832709009C4393F707041757000069
:10D734002307F7D483C7040093F707049DC39757BF
:10D7440000009387A7BF9C4382979757000023AD9F
:10D75400A7D283C7040093F7F70B17570000230DD4
:10D76400F7D083C7440093F707048DE7854717571D
:10D774000000A305F7D0975700009387A7D19C43D7
:10D78400096798C7130700FC975600002388E6CE64
:10D79400D844F8D31C40985F1183058B09CB985F5C
:10D7A4003D9B98DF0547975600002389E6CC985F98
:10D7B4001D83058B11CB985F1377F7F798DF8547A7
:10D7C40017570000230CF7CA83270900D8430583A1
:10D7D400058B19C7D843759BD8C3D843799BD8C345
:10D7E400B24022449244024941018280397106DEEA
:10D7F40016DC1ADA1ED82AD62ED432D236D03ACE35
:10D804003ECC42CA46C872C676C47AC27EC0F935D6
:10D81400F250E2525253C2533255A2551256825616
:10D824007247E2475248C248324EA24E124F824FCC
:10D83400216173002030975700009387A7C5944354
:10D8440097570000938747C303C70700058B11CB85
:10D8540097570000238407C297570000A38007C28C
:10D86400828003C71700058B65F7F85271FF83C7E1
:10D874005700DDB717580000130848BF03270800F6
:10D884001C5F9583858BD1E709C61C5BBD83230090
:10D89400F60085CA83270800985B460793576701FB
:10D8A4006356070093E707C0C207C18303970600C6
:10D8B400C207C18709C7BA970947B3C7E7022390CC
:10D8C400F60085CD834715008DCB9756000083C69F
:10D8D40006BB93F606041387970089478DCA3A95C9
:10D8E40003470500854699471376F7066311D60268
:10D8F40062076187B947634C0700832708009C5F70
:10D90400ED838D8B17570000A30DF7B681473E8535
:10D9140082808547EDBF411122C406C6175400001A
:10D92400130444B7184049E9AE877453FDFE3E859D
:10D93400B28597570000238207B4971002E0E7806E
:10D94400C00297570000938767B29C43B7068000D4
:10D954009843558F98C3D857719BD8D797570000D1
:10D96400A38E07B097570000A38807B01C4009474F
:10D9740098C3B7F700E003A707D16D9B23A8E7D0AE
:10D9840003A707D15D9B23A8E7D073005010144070
:10D9940017570000130747AE83472700858B89EB91
:10D9A40083473700858BD9C797570000238807AC76
:10D9B400B2402244410182808D476310F50297579B
:10D9C40000009387A7AA9C43B70680009843558F0D
:10D9D40098C3D857719BD8D75DBF8547E319F5FA2B
:10D9E400B567BD075CC70F1000001C4009670946F6
:10D9F40098C7130700F8975600002381E6A8175725
:10DA040000001307A7A61443984231830D8B6319B2
:10DA1400C7001307E043F8D33D673D07D8C785BF68
:10DA2400984231830D8B01E713076019EDB7130793
:10DA3400E01BD5B7FC52ADF3A5BF5D7152DC175A9C
:10DA44000000130AAAA203270A0086C6A2C4A6C21B
:10DA5400CAC04EDE1C4397590000938969A8175920
:10DA64000000130929A393F7F7E793E707081CC3FA
:10DA740083A609003707CEFF7D179C461306800254
:10DA84002A84F98F9CC683270900130700082800FD
:10DA9400B8CBAE8493051008EFF06FE0971002E066
:10DAA400E7804011971002E0E780401E83270A00B8
:10DAB4009376F41F370FFCFF23A40700984B4E887E
:10DAC400CA881367F70398CBF84F130510F8D2856B
:10DAD400137707E0558FF8CF9843F576FD16758FC9
:10DAE40098C39843B7063300B70204001377F7E7E7
:10DAF40098C398439303401F7D1F1377F7E7136779
:10DB0400071098C303A70900930F800285491C4797
:10DB1400D58F1CC7832709001307900D3400B8CB99
:10DB240011490147135337002693834703001376A3
:10DB34007700B3D7C740858BDDCF9C41832E080087
:10DB4400239C07042390070603AECE02137EDEFF58
:10DB540023A6CE0383AE0700137EF70793FE0EF8C9
:10DB640033EECE0123A0C70103AE4702336E5E003D
:10DB740023A2C70383AE0800014E23A27E0603DA64
:10DB8400070663074E0303AE0703038A0600135E0A
:10DB9400FE00620E135E8E416358CA0103AE070392
:10DBA400135EFE002380C60103DE0706137EFE0F0C
:10DBB40003AA4E0663060A0003DA8705E37F49FBDE
:10DBC40003AE4702337EEE0123A2C7038387060018
:10DBD400635CF400034E03003396C9001346F6FF5A
:10DBE4003376C6012300C3003E8663D3A7002A868A
:10DBF40013158601618505071377F70F8506E3136F
:10DC0400F7F3B640264496440649F259625A6161D4
:10DC14008280975600009386E6879C42D847131665
:10DC2400170163550602984713161701635006023D
:10DC34007D57B8D71747000013078766584F050765
:10DC440017460000232CE666116798C798470D8392
:10DC5400058B1DC31757000003472782136717005E
:10DC640017560000230BE680130700F81756000030
:10DC74002306E680214798C79847058B09CF1747A5
:10DC840000000347777F1367170017460000A305BA
:10DC9400E67E054798C798470983058B09E79847A7
:10DCA4000583058B31CF9847174600001306C67CC1
:10DCB400174500001305857B0983058B6303071053
:10DCC4001841184331830D8B75EBAC4B184E93F50B
:10DCD400050203471700CDCD79EF13077006D8CF9F
:10DCE4000347060013671700174600002306E6786B
:10DCF400114798C718415C57F19B93E717005CD70D
:10DD04009C4298479316370163D606029756000043
:10DD140083C68685C18A174700001307A77DC5CE31
:10DD2400034747071367070297560000238EE682CE
:10DD3400056798C798479316270163D106021747CA
:10DD440000000347A773620761876357070005470D
:10DD5400974600002384E672096798C7984793168C
:10DD6400070163D606029746000083C6F67F858ABC
:10DD74001747000013070778ADCE0347570713670B
:10DD8400270097460000A381E67E216798C782801A
:10DD940029D785456315B7001307B00689B78945A8
:10DDA4006315B7001307F0061DBF8D456315B70053
:10DDB400130730072DB71307500715B7130760076C
:10DDC40039BF034736001367170017460000A30640
:10DDD400E66A094739BF834647070946BD8A63880F
:10DDE400C600034747078D463D8BE313D7F411471D
:10DDF40025BF83465707918AC9DA03475707136734
:10DE0400870041B7397106DE16DC1ADA1ED82AD625
:10DE14002ED432D236D03ACE3ECC42CA46C872C68E
:10DE240076C47AC27EC0F533F250E2525253C253E2
:10DE34003255A255125682567247E2475248C2489A
:10DE4400324EA24E124F824F216173002030174789
:10DE54000000130767648346B7019747000083C730
:10DE640077664C4BB697FD8B33D7F5009746000089
:10DE7400A384F66297460000A386F664058B15EF2B
:10DE84001747000003475764B3F7E7028146014789
:10DE94001305000233D6E500058A1378F70F19CA73
:10DEA4006397D70097470000A388075F82808506A1
:10DEB40093F6F60F0507E31FA7FC8280974700003F
:10DEC4009387C7479C43011122CC4EC606CE26CA6F
:10DED4004AC852C456C28297974700009387C75DC9
:10DEE400804781496305A406BE8497470000938751
:10DEF400A740038767013E8963550706018D1354C4
:10DF040055009747000083C7C75A9379F501636D9D
:10DF1400F402370AC0A8B70A4057153F9C449746F5
:10DF2400000083C60659139756003E97830769017C
:10DF3400158C63C507006363470156979747000034
:10DF440023A0E758E37BD4FC1604B3693401F24000
:10DF540062444E85D2444249B249224A924A0561FA
:10DF64008280E37D85F8B707C0A833848740229573
:10DF740079B7974700009387673C9C43411122C4BB
:10DF840006C626C28297974700009387E7528047C8
:10DF94006309A406BE84974700009387E735838707
:10DFA400670163D80704018D135455009747000097
:10DFB40083C727506367F404593D9844974700008A
:10DFC40083C7274F9396570036971D8C97460000BA
:10DFD40023A8E64EE372F4FE2244B240924417456D
:10DFE40000000345754B81454101171302E06700AA
:10DFF40063E5E37A85FAB707C0A83384874022959E
:10E0040065B7B240224492444101828097470000A0
:10E014009387074D9843B75702009387079F83263A
:10E0240007091396560063580600832607091396BA
:10E03400660063440600FD17FDF3828071C5AA875C
:10E044000145E9C58D07C207C183F19BC207C1839E
:10E0540013074003636FF70217470000130747498C
:10E064000843174700001307274814436398A60280
:10E074001747000013074728185B014541CB41119E
:10E08400C20706C60545DD8D0297B2400145410130
:10E0940082801747000013076745D9B70357650007
:10E0A40035E303574500636FF704B306F740214691
:10E0B400637CD60203280500938687001D8FAA96E9
:10E0C4006117174600000356061E2392E60023A09C
:10E0D40006012393060014C12312F500130786FFDB
:10E0E400974600002391E61C2313B50097450000D2
:10E0F40083D5651BB387F540174700002315F71A2E
:10E104002105828008419DB70145828082800DC12E
:10E11400974700009387C73D03A307009747000074
:10E124009387873C83A8070081469A8763E3170196
:10E13400828003A80700636DF50A636BA80A13873E
:10E144008700E367E5FE03D66700216705076317C9
:10E15400E60003C7B18C0507A385E18C9745000051
:10E164009385051403D6470003D76500239307005E
:10E17400329742074183174500002316E512638A4C
:10E184006702174500001305653608416303F5026D
:10E1940003D5660019ED83D7460023A006012107A5
:10E1A4003E9621062392C60097470000239DE70E62
:10E1B400B6879843E30E17F7974600009386063315
:10E1C4009442E307D7F683566700BDF283D647002F
:10E1D400035647001843A106B2962392D70098C36A
:10E1E40083D76500A10717470000231EF70A828022
:08E1F400BE86C28725BF0000B2
:10E200009751FF1F938101A217A1FF1F130181DF07
:10E2100017E5FFFF130545DF9725FF1F938585DE73
:10E220001746FF1F130686FD63FAC500832205000B
:10E2300023A0550011059105E3EAC5FE172502004C
:10E240001305059E9745FF1F938545FB13860182A5
:10E2500063FAC5008322050023A05500110591052E
:10E26000E3EAC5FE138501829785FF1F9385453A32
:10E270006377B500232005001105E36DB5FEFD426F
:10E28000739002BC8D4273904280B722000093824B
:10E29000828873A002309722FF1F9382A2D693E256
:10E2A00032007390523097020100938242FF7390C4
:10E2B0001234730020303D432A876373C30293777F
:10E2C000F700BDEFADE5937606FF3D8ABA960CC325
:10E2D0004CC30CC74CC74107E36BD7FE11E28280E9
:10E2E000B306C3408A069702000096966780A60090
:10E2F0002307B700A306B7002306B700A305B7009E
:10E300002305B700A304B7002304B700A303B70095
:10E310002303B700A302B7002302B700A301B7008D
:10E320002301B700A300B7002300B700828093F554
:10E33000F50F93968500D58D93960501D58D61B720
:10E34000939627009702000096968682E78086FAC9
:10E350009680C1171D8F3E96E374C3F8A5B7336747
:10E36000B500FD530D8B79E7B7877F7F9387F7F76C
:10E3700010419441B372F6003363F600BE92B3E2EB
:10E3800062006397720C6318D6065041D441B37291
:10E39000F6003363F600BE92B3E262006398720A3D
:10E3A000631BD60410459445B372F6003363F60040
:10E3B000BE92B3E262006391720A631ED6025045B8
:10E3C000D445B372F6003363F600BE92B3E2620046
:10E3D000639A72086311D60210499449B372F60029
:10E3E0003363F600BE92B3E2620063937208510594
:10E3F000D105E30FD6F61317060193970601631CA8
:10E40000F7001357060193D706013305F7409375BC
:10E41000F50F91E982804183C1833305F7409375FD
:10E42000F50F91E182801377F70F93F7F70F33051C
:10E43000F74082800346050083C605000505850573
:10E440006313D60065FA3305D64082801105910525
:10E45000E312D6FE014582802105A105E31CD6FC0E
:10E46000014582803105B105E316D6FC0145828065
:10E470004105C105E310D6FC0145828001471146E4
:10E480004148B386E5008147B308F50083C808001A
:10E490008507C10623A816FFE398C7FE11071105DB
:10E4A000E31107FF8280935785019CC19357054173
:10E4B00093F7F70FDCC19357854093F7F70F137568
:10E4C000F50F9CC5C8C582801C4141111307050189
:10E4D0003EC05C413EC21C453EC45C453EC693976F
:10E4E00025001408B69783A707FF85051105232E7D
:10E4F000F5FE8D89E315E5FE41018280397122DC4C
:10E5000041661384C18D06DE26DA4AD84ED652D42F
:10E5100056D25AD05ECE93050501A2863708FF0079
:10E520007D1683070500034735001105E207D98FE3
:10E530000307D5FF9106420733770701D98F0307F9
:10E54000E5FF2207718FD98F23AEF6FEE39BA5FC72
:10E5500081499144930A010117DB0100130B8B01E0
:10E5600097DB0100938B8BFE130AC00293F73400F4
:10E57000032904004844BDE78A85353785450A8567
:10E58000A1370A871C43110793F6F70093F7070F8B
:10E59000DA97B69783C70700232EF7FEE394EAFEC7
:10E5A000024592476205C2075D8DB2475D8DA24765
:10E5B000A2075D8D93972900DE979C4385093D8DC9
:10E5C0003345250108C885041104E39144FBF2504A
:10E5D0006254D2544259B259225A925A025BF24BB7
:10E5E000216182803345A90008C8F1BF797122D426
:10E5F00026D24AD04ECE52CC56CA06D62A8A9399F3
:10E6000045000144938AC18D13090101C144B30738
:10E610003401D69788438A85793533078A008A87FB
:10E620001443904391074107B18E2328D7FEE39905
:10E6300027FF1104E31D94FCB25022549254025956
:10E64000F249624AD24A45618280397122DC130460
:10E65000050106DE22878147C1460C433306F100DF
:10E6600011070CC24C4710083E960CC24C4F1010BC
:10E670003E960CC29107E392D7FE85450A85A935DF
:10E680008945080891358D4508103D3D8147414732
:10E69000B306F10094421104232ED4FE1408BE9652
:10E6A000944254C41410BE969442910754CCE39102
:10E6B000E7FEF250625421618280060593770510CF
:10E6C00089C71375F50F1345B5018280411106C640
:10E6D000ED37B2404101D5B781471148C148338673
:10E6E000F500B306F500014703AE06003303E6006C
:10E6F00005072300C301C106E31807FF9107E39054
:10E7000017FF82809306050117D60100130686E6DF
:10E7100013050505138706FF1C43110793F5F70042
:10E7200093F7070FB297AE9783C70700232EF7FE24
:10E73000E394E6FEC106E31FD5FC8280411122C4AA
:10E7400006C626C285472E846301F50289476318F1
:10E75000F5002244B24092442E854101B9BF8D4755
:10E76000631BF5002E85913F298C2285B2402244FF
:10E77000924441018280A5476315F5002E85B93783
:10E78000DDB7AD47631AF5002E8589373D37AA847A
:10E7900022852537258DC9BFB5476316F5002E851F
:10E7A0003537AA84FDB7B947E311F5FC2E85393F0B
:10E7B000AA842137A98C228509373344950075B77F
:10E7C0006382051493F7F500639E07121571D6C393
:10E7D000AA8A3285A2CDA6CB86CFCAC9CEC7D2C55A
:10E7E000DAC15EDF62DD66DB6AD96ED73284AE8461
:10E7F000EF90217AC147631EF5002285013301495C
:10E80000130A010697DB0100938BCBEA294C634185
:10E810009902FE406E44DE444E49BE492E4A9E4A4D
:10E820000E4BFA5B6A5CDA5C4A5DBA5D2D618280F0
:10E83000338B2A010C105A859131814508107D33A4
:10E8400085490810C135081009351C10D2863E874D
:10E8500010434107C10623A8C6FE032647FF23AA8B
:10E86000C6FE032687FF23ACC6FE0326C7FF23AEE2
:10E87000C6FEE31FEAFC17D701001307A7DF032832
:10E880000700832D4700032D8700832CC700528487
:10E89000138607010C4042853ECE3ACC32CA42C8AC
:10E8A000713D0C482AC66E85513DB2460C5011048C
:10E8B000A98E6A8536C65935B2464C54A98E6685EE
:10E8C00036C6AD3DB246F2475246358D88C39107F4
:10E8D00042486247E310F6FC4107B287E391EBFA46
:10E8E000CE85081085091933E39D89F50810193D77
:10E8F0000810A13BA9450810D539DA850810E93B75
:10E90000410931B782809307F00F6384F60A2D71B5
:10E91000232A911023282111B284232631111306B2
:10E9200000102E89AA89930530020A85232E111022
:10E93000232C811036844132A2852685EFB07030B9
:10E9400013178500935785003365F7002310A10046
:10E95000A68522861305310093043400230181002B
:10E9600093F4F40FEF80D10B93F6F40089C64D04B5
:10E97000158C9374F40F1C02A697A6850A8517D6EA
:10E980000100130626D3238007F01D3D26868A85C5
:10E990004E85EF80F108230099008320C1110324E4
:10E9A000811183244111032901118329C1101561AB
:10E9B00082808280411106C6EF707024B240AA8620
:10E9C00017D70100130707D51756FF1F1306460573
:10E9D00097D50100938545D5114541016FB0F03EB3
:10E9E000130101DB23248124232021252326112444
:10E9F00023229124232E3123232C4123232A512304
:10EA00002328612303470500930710042A892E84D5
:10EA1000631FF76203471500930740056319F76208
:10EA2000034725009307E0056313F7622E86AA8546
:10EA30002545EFB0302F1306D003A2854A85EFB0ED
:10EA40001046AA84635A05003546A2854A85EFB070
:10EA50001045AA84634405089389D4FF93071003E3
:10EA600063CE37074E86930539002808EF9041564C
:10EA70001C1CBE9917DA0100130A4AF6238409DE2A
:10EA8000D28A81494D4B83254A002808EFB0F03ADD
:10EA90000DC18E09D69983D709004947636FF700E6
:10EAA00017D70100130747C28A07BA979C43BA9742
:10EAB00082878509210AE39869FD97D5010093852E
:10EAC00025F1CDA89305F4FF858D13851400C205AB
:10EAD00081460146C1814A95EF20B03E8320C12482
:10EAE0000324812483244124032901248329C1236D
:10EAF000032A8123832A4123032B012313010125A8
:10EB000082801306F4FF058E93851400420641822D
:10EB1000CA95E800EFB010611305D104EF9061478A
:10EB200093150501C1811305D104EFB0306C97D561
:10EB300001009385A5C01305D104EFB0103019CDA5
:10EB400097D50100938505C00545EFB050131765B3
:10EB5000FF1F0345B5E3EF50405B49B797D5010070
:10EB6000938585BF1305D104EFB0302D19CD97D50E
:10EB700001009385E5BE0545EFB070101765FF1FD6
:10EB80000345D5E0EF50205B91BF97D501009385F9
:10EB900025BE1305D104EFB0502A19CD3717004018
:10EBA0008327C70A916697D501009385E5BCD58F69
:10EBB0002326F70A2545DDA497D50100938585BC5A
:10EBC0001305D104EFB0702711CD3717004083270C
:10EBD000870A916697D50100938545BBD58F23247D
:10EBE000F70AC9BF97D501009385C5BA1305D104AB
:10EBF000EFB0B02405C1B716004083A7C60A056769
:10EC000013070780D98F23A6F60A97D501009385AD
:10EC100025B94DB797D50100938585B91305D10462
:10EC2000EFB0B02105C1B716004083A7860A05677B
:10EC300013070780D98F23A4F60A97D5010093857F
:10EC4000E5B78DBF97D50100938545B81305D1046D
:10EC5000EFB0B01E1DC18D4513050040EFE0101F41
:10EC6000371700408327870A97D501009385C5B6DB
:10EC700093E707402324F70A35BF97D50100938512
:10EC800065B61305D104EFB0501B1DC18D451305AA
:10EC90000040EFE0B01B371700408327C70A97D525
:10ECA00001009385E5B493E707402326F70A19B7D7
:10ECB00097D50100938585B41305D104EFB0F01703
:10ECC00011C59767FF1F23A907D009BD97D501007C
:10ECD000938585B31305D104EFB0301601C5EF500D
:10ECE000D03EEDBB97D501009385C5B21305D10485
:10ECF000EFB0B01401C5EF50B03DCDB397D50100D2
:10ED0000938505B21305D104EFB0301301C5EF5060
:10ED1000703BE9B397D50100938545B11305D10444
:10ED2000EFB0B01101C5EF50B03B4DBB97D501001E
:10ED3000938585B01305D104EFB0301011C91305C8
:10ED40009108EF80214B1375F50FEF50303679B3F2
:10ED500097D50100938585AE1305D104EFB0F00D72
:10ED600001C5EF80305F9DBB97D50100938585ADD0
:10ED70001305D104EFB0700C09C50545EF80D071C3
:10ED8000B1BB97D50100938565AC1305D104EFB0F5
:10ED9000D00A19C10145DDB797D50100938585AB30
:10EDA0001305D104EFB07009E31A05D297D501001D
:10EDB0009385C5AA1305D104EFB03008E31005D23E
:10EDC0000346D104A547130606FD1376F60FE3E7C5
:10EDD000C7D09767FF1F238AC7BE97D501009385C9
:10EDE00065A8EFB0807EDDB91306F4FF058E1385AC
:10EDF00014004206418297D50100938525574A9514
:10EE0000EFB070171764FF1F130484B705C597D5BB
:10EE10000100938565A61145EFB060668357040035
:10EE2000414593E717001767FF1F231BF7B4EFC097
:10EE3000E0156DB197D501009385C5A41145EFB0DC
:10EE400000647D55EFC0601783570400F99B176776
:10EE5000FF1F2317F7B259B1B13E49B11306F4FFB2
:10EE6000058E138514004206418297D501009385D3
:10EE7000E54F4A95EFB030109767FF1F938747B073
:10EE800083D7070019CD93E717001767FF1F2319D2
:10EE9000F7AE97D501009385A59F1145EFB0205E91
:10EEA00035B9F99B1767FF1F231CF7AC97D50100F5
:10EEB0009385C59EDDB7EF70A0109767FF1F9387FE
:10EEC00027ACA85FEF80E109AE862A8697D50100BE
:10EED0009385859D1145EFB0406F09B1EF50E04833
:10EEE000F5BE17D601001306E64897D501009385B5
:10EEF000659C1145FDB5EF70A05497D50100938531
:10EF0000259C41FD97D501009385859C79B73145B6
:10EF1000EF80102AAA84EF80C1042A86AE86254598
:10EF200097D501009385059CEFB0206A97D7010023
:10EF3000938787808843A6851754FF1F130484C6D0
:10EF4000EF70D1172320A422EF70C05503250422AF
:10EF5000EF802101AE862A8697D5010093854599D9
:10EF600095BF81451145EF50607EEF7080482A863D
:10EF700097D501009385859AADBF81451D45EF501A
:10EF8000E07C81452545EF50607C97D50100938555
:10EF9000E5992145EF50807BEF7000462AC6EF705F
:10EFA0006046B2462A871756FF1F130666A797D5F5
:10EFB00001009385E5971145EFB0206105B617571D
:10EFC000FF1F0357E7DF9756FF1F9386C6C71756E5
:10EFD000FF1F1306E6A497D501009385A597E1BF0F
:10EFE00085471757FF1F2305F7DEEF70A04B97D516
:10EFF00001009385659755B51757FF1F034747DDF8
:10F00000854797D501009385A596E318F7E8C5B71E
:10F010009767FF1F9387C796E85BEF709174AE8682
:10F020002A8697D50100938525956DB5B7170040C1
:10F0300083A7470A97D501009385459593F7072045
:10F04000E39D07E497D5010093854596B9B5014640
:10F05000A2854A85EF50805051B4411122C42164E9
:10F060009305048099460146254506C69720FF1F53
:10F07000E78000C9930504802244B2409946138674
:10F080000182294541011723FF1F670063C799E1EA
:10F090000145828075DD011152C403DA418226CA1E
:10F0A00093548A008504A204C204C18056C2B38A64
:10F0B0004441C20A22CC4AC82E862E842A8997D57A
:10F0C00001009385E5B5254593DA0A014EC606CEC3
:10F0D00093890182EFB0604F63ED8A0883D5418246
:10F0E00093F7F50FB1CF8D6783D541829387078062
:10F0F000A2864A86BE9529459720FF1FE78040C01B
:10F100001375F50F29ED83D749001566A297239251
:10F11000F18203D7418283D721826309F70063F329
:10F12000E700B297998F139607014182254597D53D
:10F130000100938565B0EFB040491375F40F0DA041
:10F140008D6793870780930600100146BE9525457D
:10F150009720FF1FE780C0BA1375F50F49D5014509
:10F16000F2406244D2444249B249224A924A05617D
:10F170008280B3079440D297C207C183A18303C79B
:10F180004900850793F7F70F9396870011EB938655
:10F19000170093740AF0A206C204C206C180C1829D
:10F1A00083D7218263F6F40033879600E3C9E7FA38
:10F1B0000D6A130A0A800146B3854401254597204C
:10F1C000FF1FE780E0B31375F50F51F983D5418236
:10F1D000A2864A86D29505B7411122C413840182C2
:10F1E00022858145194606C69720FF1FE78060EB00
:10F1F0009307B0FA2300F4008D352244B24097D52E
:10F2000001009385659A254541016FB04027A165AE
:10F210004111994613860182938505802D4506C6C6
:10F220009720FF1FE780C0AD03C701829307B00A94
:10F230006303F7005537B24083D6418203D621825B
:10F2400097D5010093850597254541016FB0E037BB
:10F2500083D7C1980145638C071003D5E198636695
:10F26000F50023A60198014582803385A740D14748
:10F270003355F5021375F50F01E523960198828049
:10F28000130101BD232481422326114223229142EE
:10F2900023202143232E3141232C4141232A514154
:10F2A00095471374F50F63F3A7001544228697D58D
:10F2B00001009385259A2545EFB02031014981440D
:10F2C00093890199514AA14A9377F90F03D5E1989F
:10F2D0001757FF1F0347A7A363E98704D1473304E8
:10F2E000F4022A9423978198A147631CF706A68508
:10F2F0000808EF40C00D03D7E19883D7C1980545B2
:10F300006364F70023A601988320C142032481424D
:10F3100083244142032901428329C141032A8141B7
:10F32000832A4141130101438280B3074903140832
:10F33000AA97CE9733859600631E5701BE85EF408E
:10F3400080282317A1008357E1000509BE94C20459
:10F35000C1809DBFAA851306E1003E85EF90205C29
:10F36000DDB726860C080145EF60F02F69B7828073
:10F37000011106CE22CC26CA4AC84EC691E90144E4
:10F380002285F2406244D2444249B24905618280FA
:10F39000AA8975D583D7418203D621822E849564AC
:10F3A000638AC7006374F60015673A961D8E93143E
:10F3B0000601C180268697C501009385E57B25451A
:10F3C000EFB0A020938714F06356F4009307F00F7A
:10F3D00063EA970097C501009385857B2545EFB0CB
:10F3E000C01E71BF83D4418233878400956763C791
:10F3F000E700A2854E8561398D3159B7156933090A
:10F400009940420913590901CA854E85493125D9C8
:10F41000ED75A695A295C20523920182C18133851F
:10F420002901D1BF83D6C19881EA97C50100938590
:10F43000A57C25456FB0A00403D6E1984111918EBB
:10F4400097C501009385457C254506C6EFB0E017BA
:10F450001387C1988355070083D7E19813850199D5
:10F460009D8DC2053E95C1812137B24023A60198EA
:10F4700041018280411183D7C19822C426C206C6A9
:10F48000AE971307401FAA842E84635AF700593F92
:10F4900097C50100938505742545EFA0507E83D75D
:10F4A000C198138501992286A6853E95EF70515724
:10F4B00003D6C198229642062244B2409244418229
:10F4C0002396C19897C50100938545722545410152
:10F4D0006FB0A00F011126CA06CE22CC4AC84EC674
:10F4E00052C456C2814459C1D1C183D7218203D4A9
:10F4F0004182638D870663F587081D8C4204418035
:10F50000AE892A89228697C50100938565630145E6
:10F51000EFB0A00BA28463F38900CE84C2040D6A0D
:10F5200083D7218203D74182C180938A0182130A43
:10F530000A8063FAE704A6864A86B38547012D450B
:10F540009710FF1FE780C07B83D72A00A6972391DF
:10F55000F182EFF09FB083D6418203D6218297C516
:10F5600001009385255F2545EFB02006F2406244F7
:10F5700026854249D244B249224A924A0561828094
:10F5800015673A949DBF15671D8FB385470163D5F5
:10F59000E400A6864A8665B79569B389F9406D741B
:10F5A0003E94C20993D909012694CE864A86420424
:10F5B0002D459710FF1FE780A0744180A286330677
:10F5C0003901D2852D45239101829710FF1FE780D5
:10F5D000207383D72A003E94239181829DBF397185
:10F5E00026DA4AD84ED652D456D25AD006DE22DC7B
:10F5F00062CE66CC2A89EF80D1199374F50F8149C8
:10F60000254BE54A17CA0100130A4A6A91ECF250E9
:10F6100062544E85D2544259B259225A925A025BD0
:10F62000724CE24C2161828003470900930707FD79
:10F6300093F7F70F637CFB009307F7F993F7F70F46
:10F6400063E2FA06930797FA93F7F70F139487018B
:10F650006184FD14230089002685EF60F1612A860C
:10F66000AE8603250A0083254A0093F4F40F0509AA
:10F67000EFE0306D2AC422852EC6EF60F15F22468E
:10F68000B246EF6001102A8C4E85AE8CEF60F165BA
:10F690002A86AE866285E685EF508123EF60115899
:10F6A000AA89ADB79306F7FB93F6F60F8147E3EF10
:10F6B000DAF8930797FC49BF411122C406C68307B5
:10F6C00095022A8499C713059502EF70B132238100
:10F6D000A1F88307D41291CB1305D412EF70313106
:10F6E000EF70F112938701F5C8D3B2402244410173
:10F6F0008280011126CA9304150022CC97C501000F
:10F70000938505612A84268506CE4AC84EC6EFA099
:10F71000D07A631E051097C501009385A55F2685E5
:10F72000EFA0B0796302050E85448307D403638696
:10F73000070C13059402EF70F12B85491379F50F2F
:10F740001305D4036387340F8947638CF418EF7073
:10F75000712AA382A1F8631A39017946814513857C
:10F7600071FA23830182EFE01FB58307D40885C3B4
:10F770001305D408EF70112803C76182930717009F
:10F780002383F182938701F5BA97A38BA70483079C
:10F79000D40D85C31305D40DEF70D12503C7618245
:10F7A000930717002383F182938701F5BA97A38B00
:10F7B000A7048307D41285C31305D412EF709123D5
:10F7C00003C76182930717002383F182938701F5B2
:10F7D000BA97A38BA7048307D41785C31305D4173F
:10F7E000EF70512103C76182930717002383F182D1
:10F7F000938701F5BA97A38BA704F2406244D244E1
:10F800004249B2490561828097C501009385C55080
:10F810002685EFA0906AE31905F0268597C50100BB
:10F820009385C54FEFA070698944E31005F08144CA
:10F83000EDBDEF70311C2383A1F8631A990079465E
:10F840008145138591F823830182EFE0DFA68307CA
:10F85000D40885C31305D408EF70D11903C761829A
:10F86000930717002383F182938701F5BA97A38C3E
:10F87000A7028307D40D85C31305D40DEF7091172C
:10F8800003C76182930717002383F182938701F5F1
:10F89000BA97A38CA7028307D41285C31305D41289
:10F8A000EF70511503C76182930717002383F1821C
:10F8B000938701F5BA97A38CA7028307D417E38E29
:10F8C00007F21305D417EF70F11203C76182930793
:10F8D00017002383F182938701F5BA97A38CA702BF
:10F8E00029BFEF703111A383A1F801BF411122C4D8
:10F8F00006C6830795072A8499C713059507EF70F5
:10F90000710FA381A1F88307D40899C71305D40800
:10F91000EF70510E2382A1F88307540B91CB13058E
:10F92000540BEF70D10CEF70816E938701F588D77F
:10F93000B240224441018280411122C406C603071D
:10F9400015058147014419C703444505130404FD07
:10F950001374F40F0307550619C713055506EF7006
:10F9600071099377F50F1374B40F0D476313E40215
:10F970001D47637CF7009757FF1F83C7870093E7F6
:10F9800087001757FF1F230EF7FEB24022444101A4
:10F9900082805547F9BF011126CA8146B2840146CB
:10F9A00052C456C206CE22CC4AC84EC62A8AAE8A55
:10F9B000EF50514041CD9307E0046386F400930774
:10F9C00030056395F40897C901009389293203A68D
:10F9D000090083A649005285D685EF50915A379485
:10F9E0009800EF60B123130404682A8933758502F7
:10F9F000EF60B12F03A6090083A64900EF504160D4
:10FA000097C701009387072F9043D443EF50415F7E
:10FA10002A8A33558902AE8AEF60312D2A86AE8656
:10FA20005285D685EF40D16A13073005AE876395BE
:10FA3000E400B7070080AD8FF2406244D2444249EF
:10FA4000B249224A924ABE850561828001458147BA
:10FA5000E5B7011126CA8146B284014652C456C296
:10FA600006CE22CC4AC84EC62A8AAE8AEF509134BE
:10FA700041CD930750046386F400930770056395A6
:10FA8000F40897C901009389692603A6090083A693
:10FA900049005285D685EF50D14E37949800EF60DB
:10FAA000F117130404682A8933758502EF60F12386
:10FAB00003A6090083A64900EF50815497C70100AF
:10FAC000938747239043D443EF5081532A8A335579
:10FAD0008902AE8AEF6071212A86AE865285D6856C
:10FAE000EF40115F13077005AE876395E400B70719
:10FAF0000080AD8FF2406244D2444249B249224A6A
:10FB0000924ABE850561828001458147E5B713575A
:10FB100085009357050113D885009376F50F0111E1
:10FB20001377F70F93F7F70F618593F5F50F1378B8
:10FB3000F80F99C211C3B9E3230CD100A30CE10063
:10FB4000230DF100A30DA10003459101834781011D
:10FB50000347A1012205A30E01014207C98F230E0D
:10FB6000B1000345B101D98F0347D1018345C101DC
:10FB7000620522075D8DD98D0561828032951375EE
:10FB8000F50F13138501135383415D4663576608D0
:10FB900061463363C30285071376D70F114593F788
:10FBA000F70F6305A6002545631AA6007946637F13
:10FBB000F60205071377F70F85470DA8094663126C
:10FBC000C7041386067D93084006B3681603638551
:10FBD000080013F5360011C5130500193366A60297
:10FBE00019EE75466374F60085470D47230CD10066
:10FBF000A30CE100230DF100A30D6100B1B7714624
:10FC0000D5B77D46E374F6FEB147E314F7FA8506EF
:10FC100093F6F60F85470547D1BFE35903FC61050D
:10FC2000FD171313850193F7F70F13538341DDFF7E
:10FC30007D171377F70F1146F947E309C7FA1946FD
:10FC4000E306C7FA2546E303C7FA2D46E300C7FAE1
:10FC500089476316F7021386067D93074006B3674C
:10FC6000F60291C793F83600F547E38108F8930749
:10FC70000019B367F60293B71700F10785BFFD4778
:10FC800035F7FD1693F6F60F31478DB7834715000C
:10FC9000034705000111A2075D8F834725008346B6
:10FCA000350083454500C207D98F0347550022CC54
:10FCB0001744FF1F130404EF03062420E206220763
:10FCC00033E5F600D98D06CE9935135885001356C5
:10FCD000050193D7850013F7F50F93F7F70F9356A8
:10FCE00085011376F60F9375F80F1375F50FEF7006
:10FCF000F02583471400054793F7B70F6397E70094
:10FD00006244F24005616F70F033F2406244056175
:10FD10008280497123248116138401F583073400FE
:10FD200083C851F503C841F503C721F583C611F512
:10FD300003C601F597C501009385450048102326A9
:10FD400011162322911623202117232E3115EF801F
:10FD5000C11E4810EF80E12318485C4803060403E5
:10FD60003AC03EC2030814035C441844541097C5BB
:10FD700001009385A5FE3695EF80211C4810EF8089
:10FD800041215C103E958307640017C601001306ED
:10FD900066FA89C717C60100130646F997D5010010
:10FDA000938545BBEF8061194810EF80811E544C4C
:10FDB000104C5C1097C50100938545FB3E95EF8084
:10FDC000C1174810EF80E11C030634035C103E9518
:10FDD00097C50100938545FAEF8021164810EF8002
:10FDE000411B03072403AA8448503ACE138401F52B
:10FDF000EF70211772475C10AE862A8697C5010006
:10FE0000938585F833859700EF8021134810EF80A4
:10FE100041185C1003C641F897C50100938545F869
:10FE20003E95EF8081114810EF80A1165C1097C5B8
:10FE300001009385E5F73E95EF8081141389E1F683
:10FE4000A28497D90100938969B003C6740519CAC1
:10FE5000481032CEEF80E11372465C10CE853E959D
:10FE6000EF80A10D8504E39224FF4810EF8061121A
:10FE70005C1097C50100938525F43E95EF804110F5
:10FE800097D40100938484AC0346940319CA4810A4
:10FE900032CEEF80011072465C10A6853E95EF8051
:10FEA000C1090504E31224FF4C102545EFA0205D95
:10FEB0008320C116032481168324411603290116C9
:10FEC0008329C11575618280411122C406C626C2EC
:10FED000830755012A84B9C7A946938707FDB387CD
:10FEE000D70203476501130707FDBA97A389F1F409
:10FEF0000307750183478501130707FD3307D70201
:10FF0000938707FD3E97238AE1F483079501034712
:10FF1000A501938707FDB387D702130707FDBA979B
:10FF2000A38AF1F48307940281CB13071004639131
:10FF3000E7148547238BF1F48307D403938401F5F9
:10FF400099C71305D403EF70812A88C4CCC4030673
:10FF5000140509CA8844CC442380C1F8EFF0BFA33C
:10FF600088C4CCC48307540699C713055406EF70A0
:10FF7000012888C8CCC80306940709CA8848CC4819
:10FF8000A380C1F8EFF0FFAC88C8CCC88307D408C1
:10FF900099CF1305D408EF70812597C70100938787
:10FFA00067D89043D443EF50C17D88CCCCCC830735
:10FFB000140A99C71305140AEF70C1232398A1F6F8
:10FFC0008307540BB9C7A946938707FDB387D702A8
:10FFD0000347640B130707FDBA972389F1F403075E
:10FFE000740B8347840B130707FD3307D7029387EE
:10FFF00007FD3E97A388E1F48307940B0347A40B06
:020000021000EC
:10000000938707FDB387D702130707FDBA972388A5
:10001000F1F483853400856703C641F5938707E1D2
:100020001307C0033307E60283C651F5B387F50211
:10003000BA97B69723AEF1F61757FF1F13074794E9
:10004000835707003A8413F5870039E1038564007C
:100050000547631FE50203C721F511EF8844CC442F
:1000600001468146EF50015505E9238B01F4B9A003
:10007000238B01F4D1B5FDD175D2EDD293E7870082
:10008000138501F51757FF1F231CF78EEFF01FC0D4
:1000900083876400E1F7D1BF8848CC480146814698
:1000A000EF50415179D183C721F5E1D31306800781
:1000B000938501F5138581EDEF70811603C581B835
:1000C0009D4705053365F50213068007938501F505
:1000D0002384A1B8930780073305F502938701B9FC
:1000E0003E95EF70E113EFF0DFC27C4C2244B2404A
:1000F00092441757FF1F2327F78E13068007814569
:10010000138501F541016FE00F9B0171232C811EC6
:10011000232A911E1306101E2A84AE84680081458E
:10012000232E111E2328211FEFE0EF9881458147E0
:10013000014701465148CD485D436340960899C147
:100140002306F1001306A002A6852285EFA0205504
:100150008347C10051473386A440B387E702930524
:10016000150078007D16A29585073305F700EF701E
:10017000210B1306A002A685228503491400EFA0D7
:100180000052894763C3A7080345C100D14733051F
:10019000F5027C0005053E95EFF06FC4631CA904D1
:1001A000194697C50100938565B51305D100EFA0E9
:1001B000805C25C56800093B35A8B306C40003C5AB
:1001C0000600930665FD93F6D60F91EA850793F72F
:1001D000F70F6361F302854501470506B9BFB38692
:1001E0000703130E011FF296BA96A38EA6E0050729
:1001F000E3D5E8FE8320C11F0324811F8324411F10
:100200000329011F1301012082803307F4000347F3
:10021000070085073349E900B5B7194697C50100BE
:10022000938505AE1305D100EFA0E05439E91946D6
:1002300097C50100938505AD1305D100EFA0A0532C
:100240000DED194697C50100938505AC1305D10046
:10025000EFA0605219ED194697C50100938505ABD3
:100260001305D100EFA0205151D56800EFF0CFEC7D
:1002700051B76800EFF0EFC7B5BF6800EFF00FE7C8
:1002800095BF6800EFF04FC3B5B7757122C526C39F
:100290004AC1CEDED2DCD6DADAD806C7AA892E89E0
:1002A000814401448147130A4002854A354B139724
:1002B00004014183636C2701BA402A449A440A49E5
:1002C000F659665AD65A465B49618280338799004F
:1002D0000347070063004703639C5701631D6701E1
:1002E0009C18A297A2856800238E07F8393D8147A4
:1002F000850475BF01449C18A29705041374F40F7C
:10030000238EE7F893373406E5B7411106C6138507
:1003100081B883470500130780078145B387E7024B
:1003200013068007A1073E95EFD0FFF8B240814544
:10033000114541016FA0D03E138581B88347050068
:1003400013078007B387E702A1073E9582801385D4
:1003500081ED8280397126DA97C40100938404917B
:1003600062CC66CA328CB68C9040D44006DE22DC69
:100370004AD84ED652D456D25AD05ECE6AC842C05F
:1003800046C217C401001304E48E3AC43EC6EF50BF
:10039000413F1040544017CD0100130D2D8EEF400A
:1003A00031462247B2479040D4402A8AAE8A3A85E5
:1003B000BE85EF50013D10405440EF4071442A8902
:1003C000AE892A86AE865285D685EF501107032660
:1003D0000D0083264D00EF50C13AEFE060012A8BFB
:1003E000AE8B5285D685EFD090772A8AAE8A4A8521
:1003F000CE85EFD0D076024892482A894286C686BA
:10040000AE896285E685EF5051039040D440EF50AD
:10041000413710405440EF40B13E03260D00832683
:100420004D00EF500136EFD0B07C2A84AE844A866E
:10043000CE865285D685EF50C1342286A686EF50EF
:1004400041342286A686EF50C1332A84AE845A8670
:10045000DE865A85DE85EF50C1322A86AE86228539
:10046000A685EF40E146EFE02040EFE0A0012A86BC
:10047000AE86EF40E14597C701009387A780904380
:10048000D443EF50013097C70100938727809043F2
:10049000D443EF50012FF2506254D2544259B25912
:1004A000225A925A025BF24B624CD24C424D21616D
:1004B00082801841938781FC104598C303574500FB
:1004C000544590C72392E70058551049D4C7544962
:1004D00098CF97B501009385A57F0547254590CB1B
:1004E000D4CB238EE7006F9090795971D2CC138AC8
:1004F00081B8A2D4A6D2CECED6CADAC8DEC6E2C4AD
:10050000E6C286D6CAD083C481B88149930B8007DE
:10051000528417BC0100130CEC77854C1D4B954A97
:100520003389740352998307E900638C071A032601
:100530000C0083264C000325090283254902EF5055
:10054000E1186340051A83470904638E971993974E
:1005500019005808BA97035789022390E7007C00D6
:10056000CE972380970085099904B3E46403E39947
:1005700059FB0357C10183574101998F13D7F741A5
:10058000B98F998F939407011307400BC18063586B
:10059000F70093078016B3849740C204C180268673
:1005A00097B501009385856F0810EF7011190C1035
:1005B0002545EF90D06C938714FFC207C18379471C
:1005C0006360F7068344D100130980078545014520
:1005D000B3842403A104A2942686EF80501A834793
:1005E000F10085450145B3872703A1073E94228684
:1005F000EF80F018A6850D45EF20307FA2850D45D0
:10060000EF20B07E0545B650265496540659F6495B
:10061000664AD64A464BB64B264C964C656182805C
:100620009307D002E3F097FE034BC100130A800743
:100630008545330B4B030145930B8B00A29B5E86D4
:10064000EF80F013834AD10085450145B38A4A0300
:10065000229BA10AA29A5686EF8070128349E1007C
:1006600085450145B3894903A109A2994E86EF80CA
:1006700010110349F100854501453309490321095A
:1006800022994A86EF80B00F8344010185450145D8
:10069000B3844403A104A2942686EF80500EDE8525
:1006A0000D45EF209074D6850D45EF201074CE8552
:1006B0000D45EF209073CA850D45EF201073A68578
:1006C0000D45EF20907283C781B8338A4703032713
:1006D0004B0352945C58E317F7F285472300F40468
:1006E00015B77D550DB7795539BF7571094506C7E1
:1006F00022C526C34AC1CEDEEFA0500F01E523A4D8
:10070000018289A813050002EFA0500E6DF9138431
:1007100081821C40850723A4F182C13B1C4017370E
:10072000FF1F0357676863E7E70203C581B89304B7
:10073000800733059502138481B8B307A4000387AB
:10074000E70009CB03C741FE938581FC19EB210526
:1007500022958533BA402A449A440A49F659496198
:10076000828003A8870183A8C701984B9049DC4B7E
:10077000D4498845CC45EFF0FFBD2A86AE862A894C
:10078000AE89680097B501009385C552EF70E17A94
:100790006C002545EF90B04E1735FF1F0345954A75
:1007A000EF50914D2A86AE864A85CE85EF4031675F
:1007B000E352A0FA03C681B8330696028545014587
:1007C00021062296EF80A07B83C581B8B385950270
:1007D0000D45A105A295EF20506103C581B83305F1
:1007E000950221052295EFF0DFCC11BF914763E31D
:1007F000C70A17B701001307E75C0A063A961C42BE
:10080000411122C406C6BA972A84828797D501006F
:10081000938585A21145EF909046A2851145EF90F2
:1008200010462244B24097D501009385A5A21145F8
:1008300041016F90D044B9CA9737FF1F83C7E7596A
:1008400081C79042EF50806E2244B24001469755D6
:100850000000938525743D4541016F3060679DC65A
:100860002244C8C2B24003C5A6002394B60036860F
:10087000954541016F80A0702244B24041016FD084
:1008800090242244B24041016F300021B240224402
:10089000410182808280411106C6EF904003B24040
:1008A00041016F80704C5571581093063102130648
:1008B000210293051102930751021305610286C7B5
:1008C000EF60B0629747FF1F9387870B83D70700BE
:1008D000BD9B1747FF1F2315F70AEFF0FFA5030382
:1008E00005039305E0048356610203471102834721
:1008F00021020348310283484102034E510217D6B8
:1009000001001306A6246316B30017E601001306C0
:10091000E61A830E150313035004032F8500832F5B
:10092000C50097E501009385651963866E0097D52C
:1009300001009385A52103230501832345017AC482
:100940001ACC1ECE7EC672C02EC832C297C5010018
:10095000938585DD1736FF1F1306860C2810EF7070
:10096000C15DEF8030032810EF70A1629387C182D0
:10097000904393150501938681FE2810C181BD35F2
:10098000BE4069618280411122C426C206C623A6E8
:10099000B1822A84B28481C69C4223A4F1FE05451B
:1009A000EFA090750545EFA0B07C03470400894790
:1009B0006317F7021305D403EF60D1030DE1EFA035
:1009C000B075EFA0F07C13050002EFA0005F97B5B3
:1009D00001009385E54C2685EF70815A51A00347AD
:1009E0000400854763F6E7081305D4039747FF1F04
:1009F00023990702EF6011009747FF1F2382A70288
:100A000013059407EF60017F1375F50F9747FF1FDC
:100A1000238AA7001747FF1F034787008D4763E618
:100A2000E7001747FF1F230DF7FE11E5A9471747FA
:100A3000FF1F2309F7FE13050002EFA02055EF402A
:100A4000E02B9746FF1F83C6E6FD1746FF1F0346B0
:100A500026FD97B501009385E5452685EF70E14DAC
:100A6000EF8080722244B240924441016F400029DD
:100A70000545EFA0A05197B501009385E547A1BFBB
:100A8000411122C42A848307D40306C626C22E85B8
:100A900089C71307F0036398E7021737FF1F13078F
:100AA00037179736FF1F938696131736FF1F1306C7
:100AB000F60F97B501009385A5522244B2409244A7
:100AC00041016F708147034704008547AE8463FC92
:100AD000E700130620039305D4031735FF1F130502
:100AE000F50CEF70E14E8307940785C303470400BC
:100AF000894763FCE7001306200393059407173525
:100B0000FF1F1305D50DEF70A14C8307540B85C350
:100B1000034704008D4763FCE70013062003930599
:100B2000540B1735FF1F1305B50EEF70614A83078D
:100B3000140F91CF03470400914763FAE7001305B0
:100B4000140FEF60216B9737FF1FA38CA70E97360A
:100B5000FF1F83C6160F1736FF1F1306760B973538
:100B6000FF1F9385D5071735FF1F13053504EF4089
:100B700080140146977500009385A50F1305C012D8
:100B8000EF300035EF5010121737FF1F13075708CB
:100B90009736FF1F9386B6041736FF1F13061601FC
:100BA00097B5010093850546268501BF411126C2F0
:100BB00006C622C4034705008947AE8463F7E702EF
:100BC0009305D5032A84130620031735FF1F130549
:100BD000E5F6EF70E13F13059407EF60A1619737E9
:100BE000FF1F239FA7FAEF507006EF50300A973689
:100BF000FF1F83D6E6FA1736FF1F130626F497C5A4
:100C00000100938565A92685EF70213385479735C7
:100C1000FF1F9385E5E01735FF1F1305E5F0173734
:100C2000FF1FA307F7E6EF70A1359735FF1F9385E8
:100C3000F5F71735FF1F1305C5E5EF7061349735DC
:100C4000FF1F9385D5F91735FF1F1305A5E7EF7033
:100C500021339735FF1F9385B5FB1735FF1F13050C
:100C600085E9EF70E13197B501009385A5AA1735A5
:100C7000FF1F1305C5EFEF70A130EF50207D014637
:100C8000974500009385A5C47945EF306024224440
:100C9000B2409244014697750000938585FD130587
:100CA000200841016F30C022411122C426C24AC02F
:100CB00006C68307D503AE8417B901001309896CF2
:100CC0001744FF1F1304C4CB89C71307F0036391B4
:100CD000E7041735FF1F0345E5F6EF50E1790326DA
:100CE000090083264900EF40A131EF60413268DC02
:100CF000EF602127AE862A8697B5010093850569A6
:100D00002244B24002492685924441016F70E1229B
:100D10001305D503EF60014E9737FF1F2384A7F219
:100D20001375F50FEF50417503260900832649001E
:100D3000EF40012DEF60A12D68DCEF50A076685CDC
:100D4000EF602122AE862A8697B50100938505665D
:100D500045BFAA870387D7032E8509C79306F003EB
:100D60006315D7029737FF1F83C717E417B6010033
:100D70001306865E89E717B601001306665E97B50F
:100D800001009385655F6F70411B41111385D70387
:100D900006C622C42E84EF60E1459737FF1FA38566
:100DA000A7E0EF5020709737FF1F83C7F7DF97B595
:100DB00001009385655B89E797B501009385455BE5
:100DC00022852244B24041016F70811B411126C22D
:100DD00006C6AA8422C48387D4032E8589C7130735
:100DE000F0036396E7049737FF1F83C717DC0547B7
:100DF0006385E70289CB09476386E702B240224454
:100E000092444101828097B501009385655E22443A
:100E1000B240924441016F70A11697B501009385CD
:100E2000A55FF5B797B501009385C561CDB79384EC
:100E3000D4032E84268597B501009385A563EF70B2
:100E4000611B1DC189471737FF1FA300F7D697B550
:100E50000100938565662285EF7081122244B240BD
:100E6000924441016F5000642685EF60A1381375EC
:100E7000F50F9737FF1FA38AA7D2854797B50100C3
:100E800093858561E309F5FC97B501009385055FBE
:100E900079D18947E30DF5FA1737FF1FA307F7D07C
:100EA00097B50100938585637DB741112E8597B570
:100EB00001009385256606C6EF70810C01469745B3
:100EC00000009385C5A07945EF308000B24001460F
:100ED000977500009385E5D91305400641016F2001
:100EE000307F411122C426C206C68307D503AE84D3
:100EF0001734FF1F130404CB89C71307F003639B48
:100F0000E7028306242017B601001306E67C63D6A9
:100F1000060017E60100130666BA268597B501009C
:100F20009385C57BEF7061012244B2409244410138
:100F30006F90902E1305D503EF60C12B9737FF1FDD
:100F40002383A7E6EF90502D0306242097B50100D8
:100F50009385857A2545EF90406783472420614734
:100F6000B10793F7F70F6377F700A1471737FF1F14
:100F7000230BF7E2EF5000538306242017B601003D
:100F80001306867563D6060017E60100130606B33E
:100F90002244B2402685924497B501009385457658
:100FA00041016F609179797122D49307D1012E8428
:100FB00078089306B1011306A10193059101130569
:100FC000E10106D6EF6060728348D1010348C10198
:100FD0008347B1010347A101834691010356E10113
:100FE00097B50100938585252285EF6011752285CF
:100FF000EF60317A9747FF1F93878798EC4F03A8DC
:1010000047060566130606E19306C00333F3C502DF
:1010100022953377D802B378C8023AC0BC4F33F771
:10102000D502B3D8D8023358C802B356D30233D648
:10103000C50297B501009385A522EF601170228546
:10104000EF6031752A94EF80107D17B6010013060A
:10105000A61E09C517B601001306C61D97B50100E7
:10106000938505242285EF60516DEF50A043EF502A
:101070006048B250225445618280AA870387D70313
:101080002E8509C79306F0036311D7029737FF1F18
:1010900083C7C7B197B50100938505EB89E797B57D
:1010A0000100938565ED6F60B16D41111385D70324
:1010B00022C406C62E84EF60E1131375F50F97372F
:1010C000FF1F2385A7AE1737FF1F0347B7AD89471B
:1010D0006316F7000DE91145EF90506B9737FF1F2E
:1010E00083C7C7AC97B50100938585EA89E797B5B3
:1010F0000100938525ED2285EF6091682244B2407E
:1011000041016F50203A1145EF90306BC1BFAA8763
:101110000387D7032E8509C79306F003631ED70202
:101120009737FF1F83C767A80547638DE70089C707
:101130000947638EE700828097B50100938545EFEC
:101140006F60116497B501009385C5F2D5BF97B55F
:1011500001009385E5F7EDB741111385D70322C44C
:1011600006C62E84EF6001091375F50F9737FF1F30
:10117000238DA7A2854797B501009385A5EF630648
:10118000F50297B501009385A5EA05C1894797B592
:1011900001009385E5F3630AF5001737FF1F230667
:1011A000F7A097B50100938565F82285EF60515D42
:1011B0002244B24041016F50E02EAA870387D70333
:1011C0002E8509C79306F003631CD7001736FF1F4F
:1011D000034656A797B50100938585126F60F155B8
:1011E00041111385D70306C622C42E84EF60010186
:1011F0009737FF1FA388A7A4EF50C02A2285224457
:10120000B2401736FF1F0346F6A397B5010093853A
:1012100065114101E1B7411122C425452E84814564
:1012200006C6EF30A052EF50E01D2A8622852244E8
:10123000B24097B501009385651141016F60F14F90
:10124000411122C41305D5032E8497B5010093855F
:10125000250606C6EF90604611CD0145EF50002FE0
:1012600097B501009385850522852244B24041014E
:101270006F6011510545EF50602D97B501009385C2
:10128000A505DDB7411122C42A848307D40306C60D
:1012900026C22E8589C71307F003639CE7029737A0
:1012A000FF1F9387A7A31737FF1F130707A09736C2
:1012B000FF1F83D686B01736FF1F1306E69B97B530
:1012C0000100938565272244B240924441016F603A
:1012D000D146AE841735FF1F1305059A9305D40335
:1012E000EF60114A1735FF1F13050599EF60714A2A
:1012F00093150501C1811735FF1F1305E597EF9081
:10130000E0728307940789CB13059407EF50916E21
:101310009737FF1F2393A7AA8307540B85CB930509
:10132000540B1735FF1F13054598EF6071451735AE
:10133000FF1F13058597EF60D14593150501C18106
:101340001735FF1F13056596EF90406E8307140F46
:1013500085CB9305140F1735FF1F13052598EF60F4
:1013600031421735FF1F13056597EF6091429315C2
:101370000501C1811735FF1F13054596EF90006BDE
:10138000EF5040129737FF1F938747951737FF1F7E
:101390001307A7919736FF1F83D626A21736FF1F84
:1013A0001306868D97B501009385451A268521BFC2
:1013B000AA870387D7032E8509C79306F003631C0A
:1013C000D7001736FF1F0356269E97B50100938559
:1013D000252A6F60913641111385D70306C622C4B2
:1013E0002E84EF503161131605019737FF1F239D9F
:1013F000A79A418297B501009385C5282285EF60A1
:10140000D1339727FF1F83C7F77909476388E70020
:10141000ED1793F7F70F0547636AF7009737FF1F3C
:1014200083D7879889EB0945EF9030392244B24041
:1014300041016F502007EF90D02675D51737FF1F59
:10144000035787969307B003E3EFE7FC0945EF9056
:10145000F033E9BFAA870387D7032E8509C7930610
:10146000F0036313D7069737FF1F83C777960547A7
:101470006389E70289CF0947638EE7020D476380DE
:10148000E70497B501009385A5176F60712F17B614
:1014900001001306A60D97B501009385A50E6F6098
:1014A000D12917B601001306A60E97B50100938542
:1014B000250FF5B717B6010013060611FDB717B6CD
:1014C00001001306A611D5B741111385D70322C415
:1014D00026C206C62E84EF50F1511375F50F9737CB
:1014E000FF1FA387A78E8544630295041DC189470A
:1014F000630AF5048D47630CF50497B501009385E5
:1015000025142285EF60D1279737FF1FA382978C80
:1015100001A897B501009385250F2285EF6051261C
:101520002244B240924441016F40D07717B6010087
:101530001306060697B501009385450E2285EF60D8
:10154000D11FF9BF17B6010013060608E5B717B695
:1015500001001306A608F9BF011106CE2EC6EF90B2
:10156000B01185471737FF1FA309F786EF40907327
:101570003245F24097B50100938585C505616F60DE
:101580003120011106CE2EC6EF9070109737FF1F45
:10159000A3850784EF4010713245F24097B50100F2
:1015A0009385C5C805616F60B11D011122CC4AC881
:1015B00006CE26CA4EC68307D5032E891724FF1FE1
:1015C0001304445E89C71307F0036395E7020325FC
:1015D0000422EF501119AE862A8697B50100938533
:1015E00065BB6244F240D244B2494A854249056132
:1015F0006F60B114AA841305D503EF50513FEF502B
:101600001121AA8913859407EF50D13E1375F50F68
:101610001DE53145EF60C039AA854E85EF50012A9E
:101620002320A422EF40106803250422EF507113F9
:10163000AE862A8697B50100938505B75DB723204E
:101640003423CDB7AA870387D7032E8509C793060E
:10165000F0036315D7029727FF1F83C7277817B6B4
:101660000100130666B789E717B601001306C6B76F
:1016700097B50100938505B86F60310C4111138552
:10168000D70322C406C62E84EF50D1361375F50F4A
:101690009727FF1F2384A77417B601001306C6B34C
:1016A00009E517B60100130626B4228597B5010097
:1016B0009385C5B5EF6071082244B24041016F4087
:1016C000705E130101BA23225145B28A2E86AA8583
:1016D0006818232E1144232C8144232A9144232863
:1016E0002145232631452320614523244145368B5E
:1016F000232E7143232C8143232A91432328A14382
:101700002326B143EF9000221305D103EF60710847
:1017100093150501C1811305D10397B4010093848A
:101720002406EF90A02C014426899309C002C840EA
:101730009305D103EF8070700DC90E044A9483178E
:101740000400139707012300012241839306B0028E
:1017500063F4E6006F10A03917A701001307C767ED
:101760008A07BA979C43BA9782870504A104E310BD
:1017700034FDFD57F9B71727FF1F03474759A14706
:101780006312F70C19464C081725FF1F1305852A0D
:10179000EF90C0070814230001020014EF60617F7E
:1017A0009727FF1F83D787611727FF1F13076759E5
:1017B0009726FF1F9386C626500897B5010093858C
:1017C00065162295EF6061770814EF60817C1C1428
:1017D0001726FF1F1306963D3E9597B5010093858A
:1017E0002517EF6081750814EF60A17A1C143E95EF
:1017F0009727FF1F9387073B8386272017B6010093
:10180000130686ED63D6060017D601001306062BD5
:1018100097B5010093854514EF6021721724FF1FCF
:10182000034454389307F4FF93F7F70F15476363A6
:10183000F71017A70100130727658A07BA979C437B
:10184000BA9782870814EF60C1741C141727FF1F12
:10185000035707579726FF1F9386E63E1726FF1F5D
:101860001306061C97B501009385850D3E95EF6024
:10187000C16C99BF0814EF60C1711C143E95854777
:1018800097B501009385050E6306F40097B5010036
:101890009385C50DC164EF60A16E1724FF1F13046B
:1018A0006430172AFF1F130A8A30FD149309C003FE
:1018B00097BB0100938B0B0C03596420630E9900B6
:1018C0000814EF60016DB37639031C14DE853E9574
:1018D00033563903EF6061660904E31F8AFC08147C
:1018E000EF60216B1726FF1F0346F62B97B501000B
:1018F000938505091C143E95BDA81726FF1F0356A6
:10190000A64A9726FF1F83D6E64A081432C636C475
:10191000EF60216832461C143E95A24621C297B55D
:1019200001009385E506A1CA97B5010093850507D7
:10193000EF60A1600814EF60C1651C149726FF1FBB
:1019400083D606131726FF1F0356A61297B501006C
:101950009385450E3E95EF60415ECDA481EA97B533
:1019600001009385A504EF60A161E9B7368697B5BC
:1019700001009385A504EF60415C6DBF0814EF6022
:1019800041611726FF1F0356E64297B50100938574
:10199000A5038DB70814EF60C15F1726FF1F03561C
:1019A000664197B5010093856503A9B70814EF60F8
:1019B000415E1C143E95C1671724FF1F0354C441A8
:1019C000FD176303F4021307C003B356E402E147B3
:1019D000114697B501009385A5013377E402B3F66C
:1019E000F602EF608155B9B7114697B501009385AE
:1019F000650251B7EF40804D9734FF1F938444F840
:101A0000EF60E017E858EF50C1552A86AE860814FB
:101A100097B5010093858503EF6021529737FF1F2B
:101A200083C797F663830712EFE01F912A84081497
:101A3000EF6021561C143E958307640017B6010021
:101A4000130606EA89E717A601001306A62E97B526
:101A500001009385A500EF60414E0814EF606153CB
:101A60002A894850EF50E14F1C142A86AE863385F0
:101A7000270197B501009385E5FEEF60014C08143E
:101A8000EF6021511C143384A700EF90804117C6EA
:101A900001001306262B09E517C601001306862947
:101AA00097B50100938585FD2285EF6001490814F3
:101AB000EF60214E2A84EF40D0131C142A8697B57C
:101AC0000100938525FC33858700EF6001470814EA
:101AD000EF60214C1C143384A700EF90A04017B690
